:020000021000EC
:10C000000000022009C3010031C3010033C3010055
:10C0100035C3010037C3010039C30100000000002F
:10C020000000000000000000000000003BC3010011
:10C030003DC30100000000003FC3010041C30100F7
:10C0400043C3010043C3010043C3010043C30100D4
:10C0500043C3010043C3010043C3010043C30100C4
:10C0600043C3010043C3010043C3010043C30100B4
:10C0700043C3010043C3010043C3010043C30100A4
:10C0800043C3010043C3010043C3010043C3010094
:10C0900043C3010043C3010043C3010043C3010084
:10C0A00043C3010043C3010043C3010043C3010074
:10C0B00043C3010043C30100000000000000000072
:10C0C00043C3010043C3010043C3010043C3010054
:10C0D00043C3010043C3010043C3010043C3010044
:10C0E00043C3010043C3010043C30100000000003B
:10C0F0000000000043C301000000000043C3010032
:10C10000000000000000000000000000000000002F
:10C11000000000000000000000000000000000001F
:10C12000000000000000000000000000000000000F
:10C1300000000000000000000000000000000000FF
:10C1400000000000000000000000000000000000EF
:10C1500000000000000000000000000000000000DF
:10C1600000000000000000000000000000000000CF
:10C1700000000000000000000000000000000000BF
:10C1800000000000000000000000000000000000AF
:10C19000000000000000000000000000000000009F
:10C1A000000000000000000000000000000000008F
:10C1B000000000000000000000000000000000007F
:10C1C000000000000000000000000000000000006F
:10C1D000000000000000000000000000000000005F
:10C1E000000000000000000000000000000000004F
:10C1F000000000000000000000000000000000003F
:10C200000348044B834202D0034B03B118477047E5
:10C21000A4110020A4110020000000000548064BD6
:10C220001B1AD90F01EBA301491002D0034B03B134
:10C2300018477047A4110020A4110020000000003E
:10C2400010B5064C237843B9FFF7DAFF044B13B15E
:10C250000448AFF300800123237010BDA411002017
:10C260000000000098C7010008B5054B1BB1054947
:10C270000548AFF30080BDE80840FFF7CFBF00BF1F
:10C2800000000000A811002098C70100A3F5803A23
:10C29000704700BF174B002B08BF134B9D46FFF79D
:10C2A000F5FF00218B460F461348144A121A00F07E
:10C2B00031FA0E4B002B00D098470D4B002B00D0CD
:10C2C00098470020002104000D000D48002802D0EE
:10C2D0000C48AFF3008000F025FA2000290000F0A0
:10C2E00031F800F005FA00BF00000800000000006F
:10C2F0000000000000000220A4110020C411002052
:10C3000000000000000000000649074A074B9B1A86
:10C3100003DD043BC858D050FBDC00F0BBF8FFF74E
:10C32000B9FF0000CCC7010098110020A411002023
:10C33000FEE7FEE7FEE7FEE7FEE7FEE7FEE7FEE7D5
:10C34000FEE7FEE780B44FF0A04103234FF00072F8
:10C350004FF400054FF08074C1F85C374A48C1F8CB
:10C360006037C1F86437C1F86837C1F80855474BE2
:10C37000C1F80845C1F808254FF080628BB0C1F8BC
:10C38000082506260027C1F80C550497049A9A42FE
:10C3900005D8049A01320492049A9A42F9D9C1F854
:10C3A00008550597059A9A4205D8059A01320592D3
:10C3B000059A9A42F9D9013EE5D10396039A824241
:10C3C00005D8039A01320392039A8242F9D90426CE
:10C3D0000027C1F80C450697069A9A4205D8069A96
:10C3E00001320692069A9A42F9D9C1F80845079790
:10C3F000079A9A4205D8079A01320792079A9A42F9
:10C40000F9D9013EE5D10296029A824205D8029AF4
:10C4100001320292029A8242F9D900220192019AD3
:10C420001B4EB24205D8019A01320192019AB242E2
:10C43000F9D904264FF0806C0027C1F80CC5089785
:10C44000089A9A4205D8089A01320892089A9A42A4
:10C45000F9D9C1F808C50997099A9A4205D8099AE5
:10C4600001320992099A9A42F9D9013EE5D1009622
:10C47000009A074EB24284D8009A01320092009A84
:10C48000B242F9D97DE700BF3F420F00DF930400BD
:10C490007F841E0010B44FF08053D3F83021082A57
:10C4A00030D0844AD2F8883043F47003C2F8883020
:10C4B000BFF34F8FBFF36F8F4FF08053D3F830210E
:10C4C000082A11D04FF01023D3F80022002AC0F21E
:10C4D000C080D3F80432002BC0F2BB80764B774A81
:10C4E0001A605DF8044B7047D3F83431052B40F2E5
:10C4F000AA804FF010224FF08043D2F80822C3F8F0
:10C500005825DFE74FF080410020C1F80C016C4A4C
:10C51000C1F81001C1F83805D3F80414C2F8201589
:10C52000D3F80814C2F82415D3F80C14C2F828154F
:10C53000D3F81014C2F82C15D3F81414C2F830151F
:10C54000D3F81814C2F83415D3F81C14C2F84015E7
:10C55000D3F82014C2F84415D3F82414C2F84815AF
:10C56000D3F82814C2F84C15D3F82C14C2F850157F
:10C57000D3F83014C2F85415D3F83414C2F8601547
:10C58000D3F83814C2F86415D3F83C14C2F868150F
:10C59000D3F84014C2F86C15D3F83411D3F84434EE
:10C5A000C2F87035052942D8464B5B5C1BB1464B3F
:10C5B000464AC3F88C26464B5B5C73B14FF0805300
:10C5C0004449D3F83021FB20C1F81805082AD3F8D4
:10C5D00034117FF466AF052929D83F4B5B5CBBB1B2
:10C5E0004FF080524FF08040D2F85832D0F8E41E1D
:10C5F000D2F8304121F00F0103F00F030B43C0F8D4
:10C60000E43E082CD2F834117FF44BAF05290ED844
:10C61000324B5B5C5BB14FF08053314AD3F8303121
:10C620004FF40071082BC2F840167FF43AAF4FF078
:10C630008043D3F80024D2077FF533AF6FF00102B7
:10C64000C3F800242DE7274AD35C002B3FF43AAF10
:10C650004FE7254A0123C2F80435D2F80034002BF5
:10C66000FBD04FF0102312211F4AC3F80012D2F85A
:10C670000034002BFBD04FF0102312211A4AC3F8CC
:10C680000412D2F80034002BFBD000231649C2F864
:10C690000435D1F80034002BFBD0BFF34F8F054990
:10C6A000124BCA6802F4E0621343CB60BFF34F8FB2
:10C6B00000BFFDE700ED00E0981100200090D003DE
:10C6C00000C0004090C701000050004048810300B6
:10C6D00090C7010000F0004090C7010090C7010022
:10C6E0000090024088C7010000E001400400FA0504
:10C6F00008B5064B044613B10021AFF30080044B8C
:10C700001B6803B19847204600F030F80000000095
:10C71000C011002002440346934200D1704703F841
:10C72000011BF9E770B50D4D0D4C641BA4100026DC
:10C73000A64209D10B4D0C4C00F01AF8641BA41052
:10C740000026A64205D170BD55F8043B9847013636
:10C75000EEE755F8043B98470136F2E79C110020BC
:10C760009C1100209C110020A0110020FEE700BFBA
:10C77000F8B500BFF8BC08BC9E467047F8B500BFCE
:10C78000F8BC08BC9E467047000000000101000094
:10C790000100000000000000100000000000000088
:10C7A000017A5200027C0E011B0C0D0010000000EB
:10C7B0001800000000000000100000000000000051
:04C7C0000000000075
:08C7C400C8FAFF7F010000002C
:0CC7CC000090D00369C2010041C20100CE
:040000031000C3091D
:00000001FF
